:020000040800F2
:100000007806002081010008A3090008A109000862
:1000100000000000000000000000000000000000E0
:10002000000000000000000000000000A709000818
:100030000000000000000000A5090008A909000850
:100040009301000893010008930100089301000840
:100050009301000893010008930100089301000830
:100060009301000893010008930100089301000820
:100070009301000893010008930100089301000810
:100080009301000893010008930100089301000800
:1000900093010008930100089301000893010008F0
:1000A00093010008930100089301000871280008DB
:1000B00093010008930100089301000893010008D0
:1000C00000F002F800F04CF812A030C808382418EC
:1000D0002D18AC4201D100F043F80FCCA246AB463C
:1000E0000CA730CF2D1B083F3F197C427F1E544484
:1000F0002D090426F441641EAC4201D300F030F80F
:100100000126334200D0FB1A3343984754465D46DC
:10011000DFE70000A82F0000C82F0000103A02D32C
:1001200078C878C1FAD8520701D330C830C101D598
:1001300004680C6070470000704700000023002432
:1001400000250026103A01D378C1FBD8520700D30E
:1001500030C100D50B6070471FB51FBD10B510BD75
:1001600000F04DF81146FFF7F7FF02F08BFB00F0AF
:1001700065F803B4FFF7F2FF03BC00F06BF8000072
:100180000748804707480047FEE7FEE7FEE7FEE72F
:10019000FEE7FEE704480549054A064B70470000A4
:1001A000B1090008C100000878000020780600208E
:1001B000780200207802002001E004C0091F042911
:1001C000FBD28B0701D50280801CC90700D00270CA
:1001D000704700290BD0C30702D00270401C491E93
:1001E000022904D3830702D50280801C891EE3E71D
:1001F0000022EEE70022DFE7704770477047754640
:1002000000F024F8AE46050069465346C008C00019
:10021000854618B020B5FFF7BDFF60BCB646002686
:100220000027C0C5C0C5C0C5C0C5C0C5C0C5C0C504
:10023000C0C5403D490849008D46704710B5044689
:10024000C046C0462046FFF794FF10BD00487047E7
:100250001000002001491820ABBEFEE72600020076
:1002600070470000054800687047C0461A4800788B
:1002700002490A68101808607047C04674000020E0
:1002800080B58548016810220A430260032000F00F
:1002900005F800F023F8002080BDC04670B5044684
:1002A0007D20C0000C4E317802F0F4FD01468448F8
:1002B000006802F0EFFD00F059FB0125032C08D87F
:1002C000002806D10025E84321462A4600F01CF804
:1002D0007460284670BDC0460000002082B0094806
:1002E00001680122114301600168114001910199E7
:1002F000110742680A434260406808400090009835
:1003000002B0704718100240002805D403220346AB
:1003100093430A4A9A1803E00C220240064BD21873
:100320008007C00E8901C9B28140FF238340106855
:10033000984308431060704714ED00E000E400E0CB
:10034000F0B581B0002846D00446534A1368012016
:1003500003408B4208D213680126B3430B4313605A
:10036000126832408A4237D1009121688A074B4B8C
:1003700010D54A0706D5072212021B681343474AC5
:100380001360464B1A68F0239A43A3681343434A09
:100390001360424BC90722D13F490868012630400B
:1003A000009A904205D90868B04308600868C00701
:1003B00012D12078400706D5072000021968814332
:1003C000E068084318601A681007810F3548022951
:1003D00012D2044650E00126304601B0F0BD6168FB
:1003E00003290DD01A1F02290FD0012912D112683A
:1003F00092030646F0D511E0032926D12A4C3BE0B2
:100400001A6B92030646E7D508E012689201064689
:10041000E2D503E0126892070646DDD51868032688
:10042000B04308431860FFF71DFF07461C4D1B4BE8
:1004300018680C210140606880008142ACD0FFF751
:1004400011FFC01BA842F2D9C6E70321CB03134911
:10045000896A0F240C401549095D94021A40240F43
:10046000134D2C5D9A4202D033049A4200E00E48AC
:1004700002F010FD4443094B18680006000F0D49B7
:10048000085CC4400E4804600320FFF707FF002605
:10049000304601B0F0BDC0460020024004100240CA
:1004A0008813000000127A00006CDC02AA300008F9
:1004B0009A3000088A300008014800687047C0463A
:1004C00008000020F0B587B004460120002C00D1C0
:1004D00045E204902078C007F94E05940CD071686D
:1004E0000C200140042900D090E03068800303D53F
:1004F0006068002800D120E12078800721D570684D
:100500000007800F0ED070680C210140082900D030
:100510009DE00320C003716801400120C0038142B7
:1005200000D094E030688007059C03D5E06801287E
:1005300000D002E13068F82188432169C9000143F5
:100540003160059C2078000724D42078400737D4F8
:100550002078C00600D4D3E005984069411D00D141
:10056000C2E0012800D030E1706B042101437163C7
:10057000706B012101437163FFF774FE0546706BD8
:10058000800700D5B4E0FFF76DFE411B0320022970
:10059000F5D9E4E1706AE169002900D181E0012127
:1005A00008437062FFF75EFE0546706A8007CCD490
:1005B000FFF758FE401B0228F7D9032007B0F0BD13
:1005C000012003900107F0690840029006D1F0690C
:1005D0000843F061F0690840069006980191E14FE8
:1005E0003868C0054AD4039804023868204338604C
:1005F000FFF738FE0546386820423FD1FFF732FE4C
:10060000401B6428F7D9032007B0F0BD7168014092
:10061000082908D10320C0037168014001200004AB
:10062000814200D161E7616801204704002900D1BF
:1006300017E1052900D12BE1012900D12CE10104AA
:1006400032688A43326081043068884327E1306829
:10065000059CE168002936D0012108433060FFF78E
:1006600001FE05463068800700D563E7FFF7FAFD15
:10067000401B0228F6D9032007B0F0BD059880681A
:10068000002800D1B6E0052800D1C9E0012800D13A
:10069000CAE0306A039988433062306A0421884393
:1006A000C5E0012188437062FFF7DCFD0546706AF2
:1006B000800700D449E7FFF7D5FD401B0228F6D993
:1006C000032007B0F0BD012188433060FFF7CAFD69
:1006D00005463068800700D433E7FFF7C3FD411BB0
:1006E00003200229F5D93AE1706B04218843706335
:1006F000706BF821884305998969C90001437163CA
:100700000598007880060BD571680C2001400C29F3
:1007100039D1706B800303D50598006A01280CD18C
:100720000598446A002C00D1E1E070680C2101407A
:10073000082905D1012C00D0C4E0049807B0F0BD11
:100740000120020631680492914331604706FFF7A9
:1007500089FD0546022C0BD1049C3068384200D13B
:10076000DEE0FFF77FFD411B03200229F5D9F6E00B
:100770003068384200D1BAE0FFF774FD411B032016
:100780000229F5D9EBE071680140082905D1032061
:10079000C003716801408142BBD0706B0599096A42
:1007A000002900D1A9E001210A04104370634C0420
:1007B000FFF758FD0546706B2042B1D1FFF752FD9F
:1007C000411B03200229F6D9C9E0706B04210143C3
:1007D0007163706B012188437063FFF743FD054629
:1007E000706B80078CD5FFF73DFD411B032002296C
:1007F000F6D9B4E0306A039988433062306A042144
:1008000088433062584CFFF72DFD0546306A80075B
:100810001DD5FFF727FD411B0320A142F6D99EE01D
:10082000306A042101433162306A0399084330621F
:100830004D4CFFF717FD0546306A800707D4FFF7D8
:1008400011FD401BA042F7D9032007B0F0BD02986C
:100850000028059C00D07BE6F06901998843F0618F
:1008600076E6010432688A4332608004316881434D
:100870003160FFF7F7FC0546059C3068384200D12F
:100880003AE6FFF7EFFC411B03206429F5D966E047
:10089000810432680A4332600104306808433060E2
:1008A000FFF7E0FC05463068384200D024E6FFF749
:1008B000D9FC401B6428F6D9032007B0F0BDC04620
:1008C000001002400320C20370680240F16A059CD8
:1008D000A36A9A42049D0DD10F221140236B9942C5
:1008E00008D191040840E16A8842284637D10020A7
:1008F00007B0F0BD284607B0F0BD01210A049043BF
:1009000070634C04FFF7AEFC0546706B204200D1CB
:1009100006E7FFF7A7FC411B03200229F5D91EE0DB
:10092000F06A0F218843059A116B0143F1627B2025
:10093000C00371688143D06A0843916A01437160C2
:10094000306820433060FFF78DFC04463068384241
:10095000CDD1FFF787FC011B03200229F6D907B090
:10096000F0BDC0460070004088130000401E010E1C
:1009700001D0012070470749074A506007480368C3
:100980000B4003218907591801600020906007215E
:1009900011607047FFFFFF0010E000E020ED00E075
:1009A000FEE7FEE77047704780B5FFF75FFC80BD4C
:1009B0007047000010B50649032800D904E1400043
:1009C00078448088400087440500870189029903A4
:1009D0001C380140BF480268402353400360086848
:1009E000000608D40868000605D40868000602D48A
:1009F00008680006F3D5522088810868000608D4EC
:100A00000868000605D40868000602D408680006D5
:100A1000F3D5652088810A68120608D40A68120690
:100A200005D40A68120602D40A681206F3D56422B5
:100A30008A810B681B0608D40B681B0605D40B685B
:100A40001B0602D40B681B06F3D520238B810C6890
:100A5000240608D40C68240605D40C68240602D4A5
:100A60000C682406F3D54C248C810C68240608D429
:100A70000C68240605D40C68240602D40C682406ED
:100A8000F3D545248C810C68240608D40C68240610
:100A900005D40C68240602D40C682406F3D544243B
:100AA0008C810C68240608D40C68240605D40C68D4
:100AB000240602D40C682406F3D58B810B681B0630
:100AC00008D40B681B0605D40B681B0602D40B6800
:100AD0001B06F3D574238B810B681B0608D40B68A7
:100AE0001B0605D40B681B0602D40B681B06F3D546
:100AF0006F238B810B681B0608D40B681B0605D47B
:100B00000B681B0602D40B681B06F3D567238B8189
:100B10000C68240608D40C68240605D40C68240646
:100B200002D40C682406F3D58B810B681B0608D40D
:100B30000B681B0605D40B681B0602D40B681B064A
:100B4000F3D56C238B810B681B0608D40B681B063E
:100B500005D40B681B0602D40B681B06F3D58881ED
:100B60000868000608D40868000605D4086800066E
:100B700002D408680006F3D58A810868000608D404
:100B80000868000605D40868000602D40868000654
:100B9000F3D50D2088810868000600D5C6E30868F3
:100BA000000600D5C2E30868000600D5BEE3086869
:100BB0000006F0D5BAE30868000608D40868000605
:100BC00005D40868000602D408680006F3D5502052
:100BD00088810868000608D40868000605D40868FB
:100BE000000602D408680006F3D552208881086800
:100BF000000608D40868000605D40868000602D478
:100C000008680006F3D54F2088810868000608D4DC
:100C10000868000605D40868000602D408680006C3
:100C2000F3D5422088810868000608D408680006C9
:100C300005D40868000602D408680006F3D54C20E5
:100C400088810868000608D40868000605D408688A
:100C5000000602D408680006F3D54520888108689C
:100C6000000608D40868000605D40868000602D407
:100C700008680006F3D54D2088810868000608D46E
:100C80000868000605D40868000602D40868000653
:100C9000F3D5212088810868000608D4086800067A
:100CA00005D40868000602D408680006F3D50D20B4
:100CB00088810868000600D538E30868000600D57A
:100CC00034E30868000600D530E308680006F0D574
:100CD0002CE3C046140800487F4802688023534034
:100CE00003600868000608D40868000605D4086890
:100CF000000602D408680006F3D5422088810868FF
:100D0000000608D40868000605D40868000602D466
:100D100008680006F3D56C2088810A68120608D49A
:100D20000A68120605D40A68120602D40A68120676
:100D3000F3D575228A810A68120608D40A68120659
:100D400005D40A68120602D40A681206F3D5652291
:100D50008A810B681B0608D40B681B0605D40B6838
:100D60001B0602D40B681B06F3D520238B810C686D
:100D7000240608D40C68240605D40C68240602D482
:100D80000C682406F3D54C248C810C68240608D406
:100D90000C68240605D40C68240602D40C682406CA
:100DA000F3D545248C810C68240608D40C682406ED
:100DB00005D40C68240602D40C682406F3D5442418
:100DC0008C810C68240608D40C68240605D40C68B1
:100DD000240602D40C682406F3D58B810B681B060D
:100DE00008D40B681B0605D40B681B0602D40B68DD
:100DF0001B06F3D574238B810B681B0608D40B6884
:100E00001B0605D40B681B0602D40B681B06F3D522
:100E10006F238B810B681B0608D40B681B0605D457
:100E20000B681B0602D40B681B06F3D567238B8166
:100E30000C68240608D40C68240605D40C68240623
:100E400002D40C682406F3D58B810B681B0608D4EA
:100E50000B681B0605D40B681B0602D40B681B0627
:100E6000F3D588810868000608D40868000605D410
:100E70000868000602D408680006F3D58A8108686D
:100E8000000608D40868000605D40868000602D4E5
:100E900008680006F3D5642088810868000608D435
:100EA0000868000605D40868000602D40868000631
:100EB000F3D50D2088810868000600D536E2086861
:100EC000000600D532E20868000600D52EE2086868
:100ED0000006F0D52AE2C04614080048012040026E
:100EE000854A1368434013600868000608D4086800
:100EF000000605D40868000602D408680006F3D589
:100F0000472088810868000608D40868000605D4D0
:100F10000868000602D408680006F3D572208881AC
:100F20000868000608D40868000605D408680006AA
:100F300002D408680006F3D5652088810A68120685
:100F400008D40A68120605D40A68120602D40A6890
:100F50001206F3D588810A68120608D40A681206B8
:100F600005D40A68120602D40A681206F3D56E2266
:100F70008A810A68120608D40A68120605D40A682B
:100F8000120602D40A681206F3D520228A810B6861
:100F90001B0608D40B681B0605D40B681B0602D47D
:100FA0000B681B06F3D54C238B810B681B0608D4FA
:100FB0000B681B0605D40B681B0602D40B681B06C6
:100FC000F3D545238B810B681B0608D40B681B06E1
:100FD00005D40B681B0602D40B681B06F3D544230B
:100FE0008B810B681B0608D40B681B0605D40B68A5
:100FF0001B0602D40B681B06F3D58A810A68120609
:1010000008D40A68120605D40A68120602D40A68CF
:101010001206F3D574228A810A68120608D40A6877
:10102000120605D40A68120602D40A681206F3D51D
:101030006F228A810A68120608D40A68120605D44B
:101040000A68120602D40A681206F3D567228A815A
:101050000B681B0608D40B681B0605D40B681B061F
:1010600002D40B681B06F3D58A810A68120608D4DD
:101070000A68120605D40A68120602D40A68120623
:10108000F3D56C228A810A68120608D40A6812060F
:1010900005D40A68120602D40A681206F3D58881BC
:1010A0000868000608D40868000605D40868000629
:1010B00002D408680006F3D5642088810868000619
:1010C00008D40868000605D40868000602D4086839
:1010D0000006F3D50D2088810868000600D525E1BB
:1010E0000868000600D521E10868000600D51DE16A
:1010F00008680006F0D519E1140800480120000234
:101100008C4A1368434013600868000608D40868D6
:10111000000605D40868000602D408680006F3D566
:101120004F2088810868000608D40868000605D4A6
:101130000868000602D408680006F3D5722088818A
:101140000868000608D40868000605D40868000688
:1011500002D408680006F3D561208881086800067B
:1011600008D40868000605D40868000602D4086898
:101170000006F3D56E2088810868000608D4086848
:10118000000605D40868000602D408680006F3D5F6
:1011900067228A810868000608D40868000605D41A
:1011A0000868000602D408680006F3D56520888127
:1011B0000B681B0608D40B681B0605D40B681B06BE
:1011C00002D40B681B06F3D520238B810C68240600
:1011D00008D40C68240605D40C68240602D40C68D4
:1011E0002406F3D54C248C810C68240608D40C68A2
:1011F000240605D40C68240602D40C682406F3D512
:1012000045248C810C68240608D40C68240605D477
:101210000C68240602D40C682406F3D544248C817F
:101220000C68240608D40C68240605D40C6824062F
:1012300002D40C682406F3D58B810B681B0608D4F6
:101240000B681B0605D40B681B0602D40B681B0633
:10125000F3D574238B810B681B0608D40B681B061F
:1012600005D40B681B0602D40B681B06F3D56F234D
:101270008B810B681B0608D40B681B0605D40B6812
:101280001B0602D40B681B06F3D58A810B681B066C
:1012900008D40B681B0605D40B681B0602D40B6828
:1012A0001B06F3D58A810A68120608D40A6812065A
:1012B00005D40A68120602D40A681206F3D56C2215
:1012C0008A810A68120608D40A68120605D40A68D8
:1012D000120602D40A681206F3D58881086800064F
:1012E00008D40868000605D40868000602D4086817
:1012F0000006F3D5642088810868000608D40868D1
:10130000000605D40868000602D408680006F3D574
:101310000D2088810868000608D40868000605D4F6
:101320000868000602D408680006F3D50A20888100
:1013300010BDC04614080048B0B50649032800D9BE
:1013400032E1400078448088400087440500B701BE
:10135000E5021D041C380140D648C030D64A136847
:10136000034013600868000608D40868000605D426
:101370000868000602D408680006F3D55220888168
:101380000868000608D40868000605D40868000646
:1013900002D408680006F3D5652088810A68120621
:1013A00008D40A68120605D40A68120602D40A682C
:1013B0001206F3D564228A810B681B0608D40B68D9
:1013C0001B0605D40B681B0602D40B681B06F3D55D
:1013D00020238B810C68240608D40C68240605D4CD
:1013E0000C68240602D40C682406F3D54C248C81A6
:1013F0000C68240608D40C68240605D40C6824065E
:1014000002D40C682406F3D545248C810C6824068C
:1014100008D40C68240605D40C68240602D40C6891
:101420002406F3D544248C810C68240608D40C6867
:10143000240605D40C68240602D40C682406F3D5CF
:101440008B810C68240608D40C68240605D40C682B
:10145000240602D40C682406F3D574248C810C680D
:10146000240608D40C68240605D40C68240602D48B
:101470000C682406F3D575248C810C68240608D4E6
:101480000C68240605D40C68240602D40C682406D3
:10149000F3D572248C810C68240608D40C682406C9
:1014A00005D40C68240602D40C682406F3D56E24F7
:1014B0008C810C68240608D40C68240605D40C68BA
:1014C000240602D40C682406F3D588810868000637
:1014D00008D40868000605D40868000602D4086825
:1014E0000006F3D58A810868000608D4086800065B
:1014F00005D40868000602D408680006F3D58B817D
:101500000868000608D40868000605D408680006C4
:1015100002D408680006F3D56F20888108680006A9
:1015200008D40868000605D40868000602D40868D4
:101530000006F3D5662088810A68120608D40A6876
:10154000120605D40A68120602D40A681206F3D5F8
:1015500088810868000608D40868000605D4086871
:10156000000602D408680006F3D50D2088810868BB
:10157000000601D500F047FC0868000601D500F020
:1015800042FC0868000601D500F03DFC0868000632
:10159000EDD500F038FC0868000608D4086800069D
:1015A00005D40868000602D408680006F3D5502068
:1015B00088810868000608D40868000605D4086811
:1015C000000602D408680006F3D552208881086816
:1015D000000608D40868000605D40868000602D48E
:1015E00008680006F3D54F2088810868000608D4F3
:1015F0000868000605D40868000602D408680006DA
:10160000F3D5422088810868000608D408680006DF
:1016100005D40868000602D408680006F3D54C20FB
:1016200088810868000608D40868000605D40868A0
:10163000000602D408680006F3D5452088810868B2
:10164000000608D40868000605D40868000602D41D
:1016500008680006F3D54D2088810868000608D484
:101660000868000605D40868000602D40868000669
:10167000F3D5212088810868000608D40868000690
:1016800005D40868000602D408680006F3D50D20CA
:1016900088810868000600D5B5E30868000600D513
:1016A000B1E30868000600D5ADE308680006F0D590
:1016B000A9E3C046FFFE00001408004894488030AB
:1016C000944A1368034013600868000608D4086849
:1016D000000605D40868000602D408680006F3D5A1
:1016E000422088810868000608D40868000605D4EE
:1016F0000868000602D408680006F3D56C208881CB
:101700000868000608D40868000605D408680006C2
:1017100002D408680006F3D575238B81086800069B
:1017200008D40868000605D40868000602D40868D2
:101730000006F3D565228A810868000608D4086887
:10174000000605D40868000602D408680006F3D530
:10175000202088810C68240608D40C68240605D44F
:101760000C68240602D40C682406F3D54C248C8122
:101770000C68240608D40C68240605D40C682406DA
:1017800002D40C682406F3D545248C810C68240609
:1017900008D40C68240605D40C68240602D40C680E
:1017A0002406F3D544248C810C68240608D40C68E4
:1017B000240605D40C68240602D40C682406F3D54C
:1017C00088810C68240608D40C68240605D40C68AB
:1017D000240602D40C682406F3D574248C810C688A
:1017E000240608D40C68240605D40C68240602D408
:1017F0000C682406F3D58B810B681B0608D40B6894
:101800001B0605D40B681B0602D40B681B06F3D518
:1018100072238B810B681B0608D40B681B0605D44A
:101820000B681B0602D40B681B06F3D56E238B8155
:101830000B681B0608D40B681B0605D40B681B0637
:1018400002D40B681B06F3D58A810A68120608D4F5
:101850000A68120605D40A68120602D40A6812063B
:10186000F3D564228A810A68120608D40A6812062F
:1018700005D40A68120602D40A681206F3D58881D4
:101880000868000608D40868000605D40868000641
:1018900002D408680006F3D56F2088810868000626
:1018A00008D40868000605D40868000602D4086851
:1018B0000006F3D5662088810A68120608D40A68F3
:1018C000120605D40A68120602D40A681206F3D575
:1018D00088810868000608D40868000605D40868EE
:1018E000000602D408680006F3D50D208881086838
:1018F000000600D587E20868000600D583E2086884
:10190000000600D57FE208680006F0D57BE2C046FD
:10191000FFFE00001408004899480268994B1340E4
:1019200003600868000608D40868000605D4086843
:10193000000602D408680006F3D5472088810868AD
:10194000000608D40868000605D40868000602D41A
:1019500008680006F3D572228A810868000608D458
:101960000868000605D40868000602D40868000666
:10197000F3D5652088810B681B0608D40B681B060D
:1019800005D40B681B0602D40B681B06F3D58881AF
:101990000B681B0608D40B681B0605D40B681B06D6
:1019A00002D40B681B06F3D56E248C810B681B06D2
:1019B00008D40B681B0605D40B681B0602D40B6801
:1019C0001B06F3D520238B810D682D0608D40D68E6
:1019D0002D0605D40D682D0602D40D682D06F3D50D
:1019E0004C258D810D682D0608D40D682D0605D473
:1019F0000D682D0602D40D682D06F3D545258D8181
:101A00000D682D0608D40D682D0605D40D682D0629
:101A100002D40D682D06F3D544258D810D682D0661
:101A200008D40D682D0605D40D682D0602D40D6866
:101A30002D06F3D58B810D682D0608D40D682D0673
:101A400005D40D682D0602D40D682D06F3D5742536
:101A50008D810D682D0608D40D682D0605D40D68FE
:101A60002D0602D40D682D06F3D575258D810D68E0
:101A70002D0608D40D682D0605D40D682D0602D458
:101A80000D682D06F3D58A810A68120608D40A6803
:101A9000120605D40A68120602D40A681206F3D5A3
:101AA0008C810A68120608D40A68120605D40A68EE
:101AB000120602D40A681206F3D588810868000667
:101AC00008D40868000605D40868000602D408682F
:101AD0000006F3D5642088810868000608D40868E9
:101AE000000605D40868000602D408680006F3D58D
:101AF0008B810868000608D40868000605D40868C9
:101B0000000602D408680006F3D56F2088810868B3
:101B1000000608D40868000605D40868000602D448
:101B200008680006F3D5662088810A68120608D482
:101B30000A68120605D40A68120602D40A68120658
:101B4000F3D588810868000608D40868000605D423
:101B50000868000602D408680006F3D50D208881C5
:101B60000868000600D54EE10868000600D54AE185
:101B70000868000600D546E108680006F0D542E195
:101B800014080048FFFD0000A0480268A04B134065
:101B900003600868000608D40868000605D40868D1
:101BA000000602D408680006F3D54F208881086833
:101BB000000608D40868000605D40868000602D4A8
:101BC00008680006F3D5722088810A68120608D4D6
:101BD0000A68120605D40A68120602D40A681206B8
:101BE000F3D561228A810A68120608D40A681206AF
:101BF00005D40A68120602D40A681206F3D56E22CA
:101C00008A810B681B0608D40B681B0605D40B6879
:101C10001B0602D40B681B06F3D567238B810B6868
:101C20001B0608D40B681B0605D40B681B0602D4E0
:101C30000B681B06F3D565248C810B681B0608D442
:101C40000B681B0605D40B681B0602D40B681B0629
:101C5000F3D520238B810D682D0608D40D682D0641
:101C600005D40D682D0602D40D682D06F3D54C253C
:101C70008D810D682D0608D40D682D0605D40D68DC
:101C80002D0602D40D682D06F3D545258D810D68EE
:101C90002D0608D40D682D0605D40D682D0602D436
:101CA0000D682D06F3D544258D810D682D0608D4C9
:101CB0000D682D0605D40D682D0602D40D682D067D
:101CC000F3D58B810D682D0608D40D682D0605D43B
:101CD0000D682D0602D40D682D06F3D574258D816F
:101CE0000D682D0608D40D682D0605D40D682D0647
:101CF00002D40D682D06F3D575258D810D682D064E
:101D000008D40D682D0605D40D682D0602D40D6883
:101D10002D06F3D588810868000608D408680006F7
:101D200005D40868000602D408680006F3D58A8145
:101D30000868000608D40868000605D4086800068C
:101D400002D408680006F3D58C810868000608D420
:101D50000868000605D40868000602D40868000672
:101D6000F3D5642088810868000608D40868000656
:101D700005D40868000602D408680006F3D58B81F4
:101D80000868000608D40868000605D4086800063C
:101D900002D408680006F3D56F2088810868000621
:101DA00008D40868000605D40868000602D408684C
:101DB0000006F3D5662088810A68120608D40A68EE
:101DC000120605D40A68120602D40A681206F3D570
:101DD00088810868000608D40868000605D40868E9
:101DE000000602D408680006F3D50D208881086833
:101DF000000608D40868000605D40868000602D466
:101E000008680006F3D50A208881B0BD1408004890
:101E1000FFFE0000B0B50649032800D923E14000C9
:101E200078448088400087440500A501C102EB0387
:101E30001C380140CE480268402313430360086801
:101E4000000608D40868000605D40868000602D415
:101E500008680006F3D5522088810868000608D477
:101E60000868000605D40868000602D40868000661
:101E7000F3D5652088810A68120608D40A6812061C
:101E800005D40A68120602D40A681206F3D5642241
:101E90008A810B681B0608D40B681B0605D40B68E7
:101EA0001B0602D40B681B06F3D520238B810C681C
:101EB000240608D40C68240605D40C68240602D431
:101EC0000C682406F3D54C248C810C68240608D4B5
:101ED0000C68240605D40C68240602D40C68240679
:101EE000F3D545248C810C68240608D40C6824069C
:101EF00005D40C68240602D40C682406F3D54424C7
:101F00008C810C68240608D40C68240605D40C685F
:101F1000240602D40C682406F3D58B810C682406B1
:101F200008D40C68240605D40C68240602D40C6876
:101F30002406F3D574248C810C68240608D40C681C
:101F4000240605D40C68240602D40C682406F3D5B4
:101F500075248C810C68240608D40C68240605D4EA
:101F60000C68240602D40C682406F3D572248C81F4
:101F70000C68240608D40C68240605D40C682406D2
:101F800002D40C682406F3D56E248C810D682D06CE
:101F900008D40D682D0605D40D682D0602D40D68F1
:101FA0002D06F3D588810868000608D40868000665
:101FB00005D40868000602D408680006F3D58A81B3
:101FC0000868000608D40868000605D408680006FA
:101FD00002D408680006F3D58B810868000608D48F
:101FE0000868000605D40868000602D408680006E0
:101FF000F3D56F2088810868000608D408680006B9
:1020000005D40868000602D408680006F3D58C8160
:102010000868000608D40868000605D408680006A9
:1020200002D408680006F3D50D20888108680006F0
:1020300001D500F017FC0868000601D500F012FC7D
:102040000868000601D500F00DFC08680006EDD513
:1020500000F008FC0868000608D40868000605D4EB
:102060000868000602D408680006F3D5502088816D
:102070000868000608D40868000605D40868000649
:1020800002D408680006F3D552208881086800064B
:1020900008D40868000605D40868000602D4086859
:1020A0000006F3D54F2088810868000608D4086828
:1020B000000605D40868000602D408680006F3D5B7
:1020C000422088810868000608D40868000605D404
:1020D0000868000602D408680006F3D54C20888101
:1020E0000868000608D40868000605D408680006D9
:1020F00002D408680006F3D54520888108680006E8
:1021000008D40868000605D40868000602D40868E8
:102110000006F3D54D2088810868000608D40868B9
:10212000000605D40868000602D408680006F3D546
:10213000212088810868000608D40868000605D4B4
:102140000868000602D408680006F3D50D208881CF
:102150000868000600D585E30868000600D581E31D
:102160000868000600D57DE308680006F0D579E32D
:10217000140800488C4802688023134303600868F1
:10218000000608D40868000605D40868000602D4D2
:1021900008680006F3D5422088810868000608D444
:1021A0000868000605D40868000602D4086800061E
:1021B000F3D56C2088810868000608D408680006FA
:1021C00005D40868000602D408680006F3D5752314
:1021D0008B810868000608D40868000605D40868E2
:1021E000000602D408680006F3D565228A810868D3
:1021F000000608D40868000605D40868000602D462
:1022000008680006F3D5202088810C68240608D4CD
:102210000C68240605D40C68240602D40C68240635
:10222000F3D54C248C810C68240608D40C68240651
:1022300005D40C68240602D40C682406F3D5452482
:102240008C810C68240608D40C68240605D40C681C
:10225000240602D40C682406F3D544248C810C682F
:10226000240608D40C68240605D40C68240602D47D
:102270000C682406F3D588810C68240608D40C6801
:10228000240605D40C68240602D40C682406F3D571
:1022900074248C810C68240608D40C68240605D4A8
:1022A0000C68240602D40C682406F3D58B810B68D5
:1022B0001B0608D40B681B0605D40B681B0602D44A
:1022C0000B681B06F3D572238B810B681B0608D4A1
:1022D0000B681B0605D40B681B0602D40B681B0693
:1022E000F3D56E238B810C68240608D40C68240671
:1022F00005D40C68240602D40C682406F3D58A8120
:102300000A68120608D40A68120605D40A6812067A
:1023100002D40A681206F3D564228A810A6812067A
:1023200008D40A68120605D40A68120602D40A689C
:102330001206F3D588810868000608D408680006EC
:1023400005D40868000602D408680006F3D56F209B
:1023500088810868000608D40868000605D4086863
:10236000000602D408680006F3D58B8108680006D1
:1023700008D40868000605D40868000602D4086876
:102380000006F3D50D2088810868000600D569E2B3
:102390000868000600D565E20868000600D561E21D
:1023A00008680006F0D55DE21408004801204002EC
:1023B000924A1368034313600868000608D408684B
:1023C000000605D40868000602D408680006F3D5A4
:1023D000472088810868000608D40868000605D4EC
:1023E0000868000602D408680006F3D572238B81C2
:1023F0000868000608D40868000605D408680006C6
:1024000002D408680006F3D565228A8108680006B0
:1024100008D40868000605D40868000602D40868D5
:102420000006F3D58A810868000608D4086800060B
:1024300005D40868000602D408680006F3D56E20AB
:1024400088810C68240608D40C68240605D40C681E
:10245000240602D40C682406F3D520248C810D6850
:102460002D0608D40D682D0605D40D682D0602D45E
:102470000D682D06F3D54C258D810D682D0608D4E9
:102480000D682D0605D40D682D0602D40D682D06A5
:10249000F3D545258D810D682D0608D40D682D06D0
:1024A00005D40D682D0602D40D682D06F3D54425FC
:1024B0008D810D682D0608D40D682D0605D40D6894
:1024C0002D0602D40D682D06F3D58C810D682D06DE
:1024D00008D40D682D0605D40D682D0602D40D68AC
:1024E0002D06F3D574258D810D682D0608D40D6851
:1024F0002D0605D40D682D0602D40D682D06F3D5E2
:1025000075258D810D682D0608D40D682D0605D41E
:102510000D682D0602D40D682D06F3D58B810B684E
:102520001B0608D40B681B0605D40B681B0602D4D7
:102530000B681B06F3D588810B681B0608D40B6853
:102540001B0605D40B681B0602D40B681B06F3D5CB
:102550008A810A68120608D40A68120605D40A6835
:10256000120602D40A681206F3D564228A810A6828
:10257000120608D40A68120605D40A68120602D4A4
:102580000A681206F3D58C810A68120608D40A6814
:10259000120605D40A68120602D40A681206F3D598
:1025A0006F228A810A68120608D40A68120605D4C6
:1025B0000A68120602D40A681206F3D588810868F0
:1025C000000608D40868000605D40868000602D48E
:1025D00008680006F3D50D2088810868000600D53C
:1025E00040E10868000600D53CE10868000600D517
:1025F00038E108680006F0D534E1C0461408004808
:1026000001200002994A136803431360086800061A
:1026100008D40868000605D40868000602D40868D3
:102620000006F3D54F2088810868000608D40868A2
:10263000000605D40868000602D408680006F3D531
:1026400072228A810868000608D40868000605D44A
:102650000868000602D408680006F3D56120888166
:102660000868000608D40868000605D40868000653
:1026700002D408680006F3D56E2088810B681B061B
:1026800008D40B681B0605D40B681B0602D40B6824
:102690001B06F3D567238B810B681B0608D40B68D8
:1026A0001B0605D40B681B0602D40B681B06F3D56A
:1026B00065248C810B681B0608D40B681B0605D4A7
:1026C0000B681B0602D40B681B06F3D520238B81F5
:1026D0000D682D0608D40D682D0605D40D682D064D
:1026E00002D40D682D06F3D54C258D810D682D067D
:1026F00008D40D682D0605D40D682D0602D40D688A
:102700002D06F3D545258D810D682D0608D40D685D
:102710002D0605D40D682D0602D40D682D06F3D5BF
:1027200044258D810D682D0608D40D682D0605D42D
:102730000D682D0602D40D682D06F3D58B810D682A
:102740002D0608D40D682D0605D40D682D0602D47B
:102750000D682D06F3D574258D810D682D0608D4DE
:102760000D682D0605D40D682D0602D40D682D06C2
:10277000F3D575258D810D682D0608D40D682D06BD
:1027800005D40D682D0602D40D682D06F3D58A8177
:102790000A68120608D40A68120605D40A681206E6
:1027A00002D40A681206F3D588810A68120608D492
:1027B0000A68120605D40A68120602D40A681206CC
:1027C000F3D58C810A68120608D40A68120605D46B
:1027D0000A68120602D40A681206F3D564228A81B6
:1027E0000A68120608D40A68120605D40A68120696
:1027F00002D40A681206F3D58B810A68120608D43F
:102800000A68120605D40A68120602D40A6812067B
:10281000F3D56F228A810A68120608D40A68120664
:1028200005D40A68120602D40A681206F3D5888114
:102830000868000608D40868000605D40868000681
:1028400002D408680006F3D50D20888108680006C8
:1028500008D40868000605D40868000602D4086891
:102860000006F3D50A208881B0BDC0461408004890
:1028700003480088EE494870012008707047C04640
:102880002438014094B0FDF7FBFC07AD281D302132
:10289000FDF7B0FC0024109410200B9001260A963E
:1028A000022707972846FDF70DFE002803D0EFF317
:1028B000108072B6FEE702960694059404940720F1
:1028C000039003A82146FDF73BFD002803D0EFF35A
:1028D000108072B6FEE70197029DA803CF494A68AF
:1028E00002434A60052670040A6802430A60FDF745
:1028F000E3FDE121490200F0CDFA2B46C84D2946FF
:10290000103908600920C006F10401601121090195
:102910004162C448011F552212030A600168046025
:102920004168446081688460D806BF490860FF2020
:102930000006BE490A6882430320009080071018F1
:10294000086028461C3801682D220A430260B84FEF
:1029500061E1F0B2FEF7F0FC029B002430465AE140
:102960003878002808D13878002805D13878002830
:1029700002D138780028F3D0797800203870E20747
:1029800000D12EE13029E4D0312900D178E232297A
:1029900003D1F0B2FEF70EF8DEE72868000608D48F
:1029A0002868000605D42868000602D428680006B6
:1029B000F3D54920A8812868000608D428680006B5
:1029C00005D42868000602D428680006F3D56E20D6
:1029D000A8812868000608D42868000605D428685D
:1029E000000602D428680006F3D57620A88128685E
:1029F000000608D42868000605D42868000602D41A
:102A000028680006F3D56120A8812868000608D44C
:102A10002868000605D42868000602D42868000645
:102A2000F3D56C20A8812868000608D42868000621
:102A300005D42868000602D428680006F3D569206A
:102A4000A8812868000608D42868000605D42868EC
:102A5000000602D428680006F3D56420A8812968FE
:102A6000090608D42968090605D42968090602D48C
:102A700029680906F3D52022AA812968090608D405
:102A80002968090605D42968090602D429680906B7
:102A9000F3D56B21A9812968090608D4296809069C
:102AA00005D42968090602D429680906F3D56521E9
:102AB000A9812B681B0608D42B681B0605D42B683C
:102AC0001B0602D42B681B06F3D57923AB812B6838
:102AD0001B0608D42B681B0605D42B681B0602D4E2
:102AE0002B681B06F3D5AA812A68120608D42A6827
:102AF000120605D42A68120602D42A681206F3D5F3
:102B00007022AA812A68120608D42A68120605D4FF
:102B10002A68120602D42A681206F3D57222AA8104
:102B20002A68120608D42A68120605D42A681206F2
:102B300002D42A681206F3D5A9812A68120608D49D
:102B40002A68120605D42A68120602D42A681206D8
:102B5000F3D57322AA812B681B0608D42B681B06A9
:102B600005D42B681B0602D42B681B06F3D5AA815B
:102B70002A68120608D42A68120605D42A681206A2
:102B800002D42A681206F3D5A981029B2968090696
:102B900008D42968090605D42968090602D42968D9
:102BA0000906F3D5A8812868000608D4286800061D
:102BB00005D42868000602D428680006F3D50D2045
:102BC000A8812868000600D557E12868000600D5CE
:102BD00053E12868000600D54FE128680006F0D5CB
:102BE0004BE16239102928D81C464900794489886C
:102BF00049008F441F0022002200220022004901C8
:102C000022002200220022002200220022004C0189
:102C10002200220010000646A2E6C0461410024020
:102C20001C3801400408004800E100E018E400E01E
:102C30007000002001201C46EDE72868000608D43B
:102C40002868000605D42868000602D42868000613
:102C5000F3D54920A8812868000608D42868000612
:102C600005D42868000602D428680006F3D56E2033
:102C7000A8812868000608D42868000605D42868BA
:102C8000000602D428680006F3D57620A8812868BB
:102C9000000608D42868000605D42868000602D477
:102CA00028680006F3D56120A8812868000608D4AA
:102CB0002868000605D42868000602D428680006A3
:102CC000F3D56C20A8812868000608D4286800067F
:102CD00005D42868000602D428680006F3D56920C8
:102CE000A8812868000608D42868000605D428684A
:102CF000000602D428680006F3D56420A88129685C
:102D0000090608D42968090605D42968090602D4E9
:102D100029680906F3D52022AA812968090608D462
:102D20002968090605D42968090602D42968090614
:102D3000F3D56B21A9812968090608D429680906F9
:102D400005D42968090602D429680906F3D5652146
:102D5000A9812B681B0608D42B681B0605D42B6899
:102D60001B0602D42B681B06F3D57923AB812B6895
:102D70001B0608D42B681B0605D42B681B0602D43F
:102D80002B681B06F3D5AA812A68120608D42A6884
:102D9000120605D42A68120602D42A681206F3D550
:102DA0007022AA812A68120608D42A68120605D45D
:102DB0002A68120602D42A681206F3D57222AA8162
:102DC0002A68120608D42A68120605D42A68120650
:102DD00002D42A681206F3D5A9812A68120608D4FB
:102DE0002A68120605D42A68120602D42A68120636
:102DF000F3D57322AA812B681B0608D42B681B0607
:102E000005D42B681B0602D42B681B06F3D5AA81B8
:102E10002A68120608D42A68120605D42A681206FF
:102E200002D42A681206F3D5A981029B29680906F3
:102E300008D42968090605D42968090602D4296836
:102E40000906F3D5A8812868000608D4286800067A
:102E500005D42868000602D428680006F3D50D20A2
:102E6000A8812868000608D42868000605D42868C8
:102E7000000602D428680006F3D50A20A8816CE574
:102E8000F0B2FEF7C7FF67E51C460198C3E61C4693
:102E90000098C0E643088B421AD3002203098B42F4
:102EA00079D3030A8B425ED3030B8B4242D3030CCC
:102EB0008B4227D30902FF2212BA030C8B4202D3A2
:102EC0001212090203D0030B8B4233D31AE0D3E072
:102ED000411A8041401C704703460B4371D443089C
:102EE0008B42F5D3002203098B4254D3030A8B4251
:102EF00039D3030B8B421DD3030C8B4202D3944670
:102F00006EE0090AC30B8B4201D3CB03C01A5241B6
:102F1000830B8B4201D38B03C01A5241430B8B426C
:102F200001D34B03C01A5241030B8B4201D30B0355
:102F3000C01A5241C30A8B4201D3CB02C01A52417C
:102F4000830A8B4201D38B02C01A5241430A8B423F
:102F500001D34B02C01A5241030A8B4201D30B0228
:102F6000C01A5241CDD2C3098B4201D3CB01C01A42
:102F7000524183098B4201D38B01C01A524143094C
:102F80008B4201D34B01C01A524103098B4201D33A
:102F90000B01C01A5241C3088B4201D3CB00C01AA7
:102FA000524183088B4201D38B00C01A524143081F
:102FB0008B4201D34B00C01A5241411A52411000BA
:102FC0007047CA0F00D04942031000D3404253401B
:102FD00000229C4603098B422DD3030A8B4212D355
:102FE0008901FC2212BA030A8B420CD38901921187
:102FF0008B4208D3890192118B4204D3890137D0C7
:10300000921100E08909C3098B4201D3CB01C01A98
:10301000524183098B4201D38B01C01A52414309AB
:103020008B4201D34B01C01A524103098B4201D399
:103030000B01C01A5241C3088B4201D3CB00C01A06
:10304000524183088B4201D38B00C01A5241D9D21E
:1030500043088B4201D34B00C01A5241411A00D29F
:1030600001465241104663465B1000D34042704710
:1030700063465B1000D3404201B50021004201D0FD
:10308000C9430846C046C04602BD0000000000001B
:1030900000000102030406070809020304050607ED
:1030A00008090A0B0C0D0E0F10100102030405068F
:1030B0000708090A0B0C0D0E0F100000E030000885
:1030C00000000020100000001C010008F030000883
:1030D00010000020680600003C010008000000000D
:1030E000010000000400000000127A00000000004F
:04000005080000C12E
:00000001FF
