:020000040800F2
:100000007806002081010008C3090008C109000822
:1000100000000000000000000000000000000000E0
:10002000000000000000000000000000C7090008F8
:100030000000000000000000C5090008C909000810
:100040009301000893010008930100089301000840
:100050009301000893010008930100089301000830
:100060009301000893010008930100089301000820
:100070009301000893010008930100089301000810
:100080009301000893010008930100089301000800
:1000900093010008930100089301000893010008F0
:1000A00093010008930100089301000893010008E0
:1000B00093010008930100089301000893010008D0
:1000C00000F002F800F04CF812A030C808382418EC
:1000D0002D18AC4201D100F043F80FCCA246AB463C
:1000E0000CA730CF2D1B083F3F197C427F1E544484
:1000F0002D090426F441641EAC4201D300F030F80F
:100100000126334200D0FB1A3343984754465D46DC
:10011000DFE70000283F0000483F0000103A02D30C
:1001200078C878C1FAD8520701D330C830C101D598
:1001300004680C6070470000704700000023002432
:1001400000250026103A01D378C1FBD8520700D30E
:1001500030C100D50B6070471FB51FBD10B510BD75
:1001600000F04DF81146FFF7F7FF03F0A9FA00F091
:1001700065F803B4FFF7F2FF03BC00F06BF8000072
:100180000748804707480047FEE7FEE7FEE7FEE72F
:10019000FEE7FEE704480549054A064B70470000A4
:1001A000D1090008C100000878000020780600206E
:1001B000780200207802002001E004C0091F042911
:1001C000FBD28B0701D50280801CC90700D00270CA
:1001D000704700290BD0C30702D00270401C491E93
:1001E000022904D3830702D50280801C891EE3E71D
:1001F0000022EEE70022DFE7704770477047754640
:1002000000F024F8AE46050069465346C008C00019
:10021000854618B020B5FFF7BDFF60BCB646002686
:100220000027C0C5C0C5C0C5C0C5C0C5C0C5C0C504
:10023000C0C5403D490849008D46704710B5044689
:10024000C046C0462046FFF794FF10BD00487047E7
:100250001000002001491820ABBEFEE72600020076
:1002600070470000B0B5044600F00CF80546601C6D
:1002700002D021480078041900F004F8401BA04285
:10028000FAD3B0BD054800687047C0461A480078E8
:1002900002490A68101808607047C04670000020C4
:1002A00080B58548016810220A430260032000F0EF
:1002B00005F800F023F8002080BDC04670B5044664
:1002C0007D20C0000C4E317803F082FD0146844849
:1002D000006803F07DFD00F059FB0125032C08D8D0
:1002E000002806D10025E84321462A4600F01CF8E4
:1002F0007460284670BDC0460000002082B00948E6
:1003000001680122114301600168114001910199C6
:10031000110742680A434260406808400090009814
:1003200002B0704718100240002805D4032203468B
:1003300093430A4A9A1803E00C220240064BD21853
:100340008007C00E8901C9B28140FF238340106835
:10035000984308431060704714ED00E000E400E0AB
:10036000F0B581B0002846D00446534A13680120F6
:1003700003408B4208D213680126B3430B4313603A
:10038000126832408A4237D1009121688A074B4B6C
:1003900010D54A0706D5072212021B681343474AA5
:1003A0001360464B1A68F0239A43A3681343434AE9
:1003B0001360424BC90722D13F49086801263040EB
:1003C000009A904205D90868B04308600868C007E1
:1003D00012D12078400706D5072000021968814312
:1003E000E068084318601A681007810F3548022931
:1003F00012D2044650E00126304601B0F0BD6168DB
:1004000003290DD01A1F02290FD0012912D1126819
:1004100092030646F0D511E0032926D12A4C3BE091
:100420001A6B92030646E7D508E012689201064669
:10043000E2D503E0126892070646DDD51868032668
:10044000B04308431860FFF71DFF07461C4D1B4BC8
:1004500018680C210140606880008142ACD0FFF731
:1004600011FFC01BA842F2D9C6E70321CB031349F1
:10047000896A0F240C401549095D94021A40240F23
:10048000134D2C5D9A4202D033049A4200E00E488C
:1004900003F09EFC4443094B18680006000F0D4909
:1004A000085CC4400E4804600320FFF707FF0026E5
:1004B000304601B0F0BDC0460020024004100240AA
:1004C0008813000000127A00006CDC02E63F00088E
:1004D000D63F0008C63F0008014800687047C04684
:1004E00008000020F0B587B004460120002C00D1A0
:1004F00045E204902078C007F94E05940CD071684D
:100500000C200140042900D090E03068800303D51E
:100510006068002800D120E12078800721D570682C
:100520000007800F0ED070680C210140082900D010
:100530009DE00320C003716801400120C003814297
:1005400000D094E030688007059C03D5E06801285E
:1005500000D002E13068F82188432169C9000143D5
:100560003160059C2078000724D42078400737D4D8
:100570002078C00600D4D3E005984069411D00D121
:10058000C2E0012800D030E1706B042101437163A7
:10059000706B012101437163FFF774FE0546706BB8
:1005A000800700D5B4E0FFF76DFE411B0320022950
:1005B000F5D9E4E1706AE169002900D181E0012107
:1005C00008437062FFF75EFE0546706A8007CCD470
:1005D000FFF758FE401B0228F7D9032007B0F0BDF3
:1005E000012003900107F0690840029006D1F069EC
:1005F0000843F061F0690840069006980191E14FC8
:100600003868C0054AD4039804023868204338602B
:10061000FFF738FE0546386820423FD1FFF732FE2B
:10062000401B6428F7D9032007B0F0BD7168014072
:10063000082908D10320C00371680140012000048B
:10064000814200D161E7616801204704002900D19F
:1006500017E1052900D12BE1012900D12CE101048A
:1006600032688A43326081043068884327E1306809
:10067000059CE168002936D0012108433060FFF76E
:1006800001FE05463068800700D563E7FFF7FAFDF5
:10069000401B0228F6D9032007B0F0BD05988068FA
:1006A000002800D1B6E0052800D1C9E0012800D11A
:1006B000CAE0306A039988433062306A0421884373
:1006C000C5E0012188437062FFF7DCFD0546706AD2
:1006D000800700D449E7FFF7D5FD401B0228F6D973
:1006E000032007B0F0BD012188433060FFF7CAFD49
:1006F00005463068800700D433E7FFF7C3FD411B90
:1007000003200229F5D93AE1706B04218843706314
:10071000706BF821884305998969C90001437163A9
:100720000598007880060BD571680C2001400C29D3
:1007300039D1706B800303D50598006A01280CD16C
:100740000598446A002C00D1E1E070680C2101405A
:10075000082905D1012C00D0C4E0049807B0F0BDF1
:100760000120020631680492914331604706FFF789
:1007700089FD0546022C0BD1049C3068384200D11B
:10078000DEE0FFF77FFD411B03200229F5D9F6E0EB
:100790003068384200D1BAE0FFF774FD411B0320F6
:1007A0000229F5D9EBE071680140082905D1032041
:1007B000C003716801408142BBD0706B0599096A22
:1007C000002900D1A9E001210A04104370634C0400
:1007D000FFF758FD0546706B2042B1D1FFF752FD7F
:1007E000411B03200229F6D9C9E0706B04210143A3
:1007F0007163706B012188437063FFF743FD054609
:10080000706B80078CD5FFF73DFD411B032002294B
:10081000F6D9B4E0306A039988433062306A042123
:1008200088433062584CFFF72DFD0546306A80073B
:100830001DD5FFF727FD411B0320A142F6D99EE0FD
:10084000306A042101433162306A039908433062FF
:100850004D4CFFF717FD0546306A800707D4FFF7B8
:1008600011FD401BA042F7D9032007B0F0BD02984C
:100870000028059C00D07BE6F06901998843F0616F
:1008800076E6010432688A4332608004316881432D
:100890003160FFF7F7FC0546059C3068384200D10F
:1008A0003AE6FFF7EFFC411B03206429F5D966E027
:1008B000810432680A4332600104306808433060C2
:1008C000FFF7E0FC05463068384200D024E6FFF729
:1008D000D9FC401B6428F6D9032007B0F0BDC04600
:1008E000001002400320C20370680240F16A059CB8
:1008F000A36A9A42049D0DD10F221140236B9942A5
:1009000008D191040840E16A8842284637D1002086
:1009100007B0F0BD284607B0F0BD01210A0490439E
:1009200070634C04FFF7AEFC0546706B204200D1AB
:1009300006E7FFF7A7FC411B03200229F5D91EE0BB
:10094000F06A0F218843059A116B0143F1627B2005
:10095000C00371688143D06A0843916A01437160A2
:10096000306820433060FFF78DFC04463068384221
:10097000CDD1FFF787FC011B03200229F6D907B070
:10098000F0BDC0460070004088130000401E010EFC
:1009900001D0012070470749074A506007480368A3
:1009A0000B4003218907591801600020906007213E
:1009B00011607047FFFFFF0010E000E020ED00E055
:1009C000FEE7FEE77047704780B5FFF75FFC80BD2C
:1009D00070470000F0B582B00191009001B2AE4BBB
:1009E000002900D55AE1012111701968090608D4BF
:1009F0001968090605D41968090602D41968090698
:100A0000F3D5582199811968090608D4196809068F
:100A100005D41968090602D419680906F3D52026F9
:100A20009E811968090608D41968090605D4196851
:100A3000090602D419680906F3D569249C8119684E
:100A4000090608D41968090605D41968090602D4EC
:100A500019680906F3D56E2098811A68120608D421
:100A60001A68120605D41A68120602D41A68120609
:100A7000F3D59E811A68120608D41A68120605D4A6
:100A80001A68120602D41A681206F3D570229A81E7
:100A90001A68120608D41A68120605D41A681206D3
:100AA00002D41A681206F3D56F259D811A681206C2
:100AB00008D41A68120605D41A68120602D41A68F5
:100AC0001206F3D573229A811A68120608D41A689E
:100AD000120605D41A68120602D41A681206F3D553
:100AE0009C811A68120608D41A68120605D41A687E
:100AF000120602D41A681206F3D574279F811A6869
:100B0000120608D41A68120605D41A68120602D40E
:100B10001A681206F3D59C811A68120608D41A685E
:100B2000120605D41A68120602D41A681206F3D502
:100B300076229A811A68120608D41A68120605D419
:100B40001A68120602D41A681206F3D565229A8131
:100B50001968090608D41968090605D41968090630
:100B600002D419680906F3D59E811968090608D4CC
:100B70001968090605D41968090602D41968090616
:100B8000F3D5642199811968090608D41968090602
:100B900005D41968090602D419680906F3D59C81A1
:100BA0001968090608D41968090605D419680906E0
:100BB00002D419680906F3D57221998119680906CA
:100BC00008D41968090605D41968090602D41968F9
:100BD0000906F3D59A811968090608D41968090627
:100BE00005D41968090602D419680906F3D56321EA
:100BF00099811968090608D41968090605D4196885
:100C0000090602D419680906F3D59F8119680906F7
:100C100008D41968090605D41968090602D41968A8
:100C20000906F3D59C811968090608D419680906D4
:100C300005D41968090602D419680906F3D59D81FF
:100C40001968090608D41968090605D4196809063F
:100C500002D419680906F3D598811868000608D4EB
:100C60001868000605D41868000602D41868000643
:100C7000F3D50D2098811868000600D562E1186848
:100C8000000600D55EE11868000600D55AE1186834
:100C90000006F0D556E1C0461C3801400021117015
:100CA0001968090608D41968090605D419680906DF
:100CB00002D419680906F3D55821998119680906E3
:100CC00008D41968090605D41968090602D41968F8
:100CD0000906F3D520259D811968090608D41968ED
:100CE000090605D41968090602D419680906F3D55E
:100CF00069249C811968090608D41968090605D475
:100D00001968090602D419680906F3D56E229A817A
:100D10001968090608D41968090605D4196809066E
:100D200002D419680906F3D59D811968090608D40B
:100D30001968090605D41968090602D41968090654
:100D4000F3D59A811968090608D41968090605D4EB
:100D50001968090602D419680906F3D565269E812B
:100D60001968090608D41968090605D4196809061E
:100D700002D419680906F3D5672199811968090613
:100D800008D41968090605D41968090602D4196837
:100D90000906F3D5612199811968090608D41968F3
:100DA000090605D41968090602D419680906F3D59D
:100DB00074279F811968090608D41968090605D4A3
:100DC0001968090602D419680906F3D59C811968C7
:100DD000090608D41968090605D41968090602D459
:100DE00019680906F3D5762199811968090608D48E
:100DF0001968090605D41968090602D41968090694
:100E0000F3D59E811968090608D41968090605D426
:100E10001968090602D419680906F3D59D81196875
:100E2000090608D41968090605D41968090602D408
:100E300019680906F3D5642199811968090608D44F
:100E40001968090605D41968090602D41968090643
:100E5000F3D59C811968090608D41968090605D4D8
:100E60001968090602D419680906F3D57221998117
:100E70001968090608D41968090605D4196809060D
:100E800002D419680906F3D59E811968090608D4A9
:100E90001968090605D41968090602D419680906F3
:100EA000F3D5632199811968090608D419680906E0
:100EB00005D41968090602D419680906F3D59F817B
:100EC0001968090608D41968090605D419680906BD
:100ED00002D419680906F3D59C811968090608D45B
:100EE0001968090605D41968090602D419680906A3
:100EF000F3D56F2199811968090608D41968090684
:100F000005D41968090602D419680906F3D59A812F
:100F10001968090608D41968090605D4196809066C
:100F200002D419680906F3D50D21998119680906BB
:100F300008D41968090605D41968090602D4196885
:100F40000906F3D50A2098810098404202490140E1
:100F50000198018002B0F0BDFF7F0000F0B595B0B0
:100F60000B930A9205910746BD4D2868000608D4E8
:100F70002868000605D42868000602D42868000600
:100F8000F3D553200C90A8812868000608D428685F
:100F9000000605D42868000602D428680006F3D5A8
:100FA0007421A9812868000608D42868000605D4A1
:100FB0002868000602D428680006F3D56120119045
:100FC000A8812868000608D42868000605D4286887
:100FD000000602D428680006F3D572201290A8817A
:100FE0002868000608D42868000605D4286800068A
:100FF00002D428680006F3D5A9812868000608D421
:101000002868000605D42868000602D4286800066F
:10101000F3D56922AA812868000608D4286800064A
:1010200005D42868000602D428680006F3D56E208F
:101030000F90A8812868000608D42868000605D407
:101040002868000602D428680006F3D567200E90B1
:10105000A8812868000608D42868000605D42868F6
:10106000000602D428680006F3D520201490A88139
:101070002868000608D42868000605D428680006F9
:1010800002D428680006F3D549200D90A88128686D
:10109000000608D42868000605D42868000602D493
:1010A00028680006F3D532200090A8812868000641
:1010B00008D42868000605D42868000602D42868E9
:1010C0000006F3D543201090A8812868000608D4B4
:1010D0002868000605D42868000602D4286800069F
:1010E000F3D51498A8812868000608D4286800065B
:1010F00005D42868000602D428680006F3D56D20C0
:101100000290A8812868000608D42868000605D443
:101110002868000602D428680006F3D57520A88147
:101120002868000608D42868000605D42868000648
:1011300002D428680006F3D56C200190A8812868A5
:10114000000608D42868000605D42868000602D4E2
:1011500028680006F3D5A9812868000608D4286805
:10116000000605D42868000602D428680006F3D5D6
:10117000AA812868000608D42868000605D42868D3
:10118000000602D428680006F3D51498A8812868C0
:10119000000608D42868000605D42868000602D492
:1011A00028680006F3D51298A8812868000608D49C
:1011B0002868000605D42868000602D428680006BE
:1011C000F3D565200790A8812868000608D4286810
:1011D000000605D42868000602D428680006F3D566
:1011E0001198A8812868000608D42868000605D44C
:1011F0002868000602D428680006F3D5642006900B
:10120000A8812868000608D42868000605D4286844
:10121000000602D428680006F3D50D201390A8819B
:101220002868000608D42868000605D42868000647
:1012300002D428680006F3D50A23AB81094C264660
:10124000143E0020089030600920049040037F0085
:1012500003973818274609963060206806E0C04694
:101260001C38014018580040AB813868C00600D5D2
:101270007BE13868800700D577E12868000608D44C
:101280002868000605D42868000602D428680006ED
:10129000F3D55720A8812868000608D428680006DE
:1012A00005D42868000602D428680006F3D51198F2
:1012B000A8812868000608D42868000605D4286894
:1012C000000602D428680006F3D5AA812868000623
:1012D00008D42868000605D42868000602D42868C7
:1012E0000006F3D5A9812868000608D428680006FE
:1012F00005D42868000602D428680006F3D5AA8120
:101300002868000608D42868000605D42868000666
:1013100002D428680006F3D50F98A8812868000633
:1013200008D42868000605D42868000602D4286876
:101330000006F3D50E98A8812868000608D428680E
:10134000000605D42868000602D428680006F3D5F4
:101350001498A8812868000608D42868000605D4D7
:101360002868000602D428680006F3D56620A88104
:101370002868000608D42868000605D428680006F6
:1013800002D428680006F3D56F26AE8128680006CF
:1013900008D42868000605D42868000602D4286806
:1013A0000006F3D51298A8812868000608D428689A
:1013B000000605D42868000602D428680006F3D584
:1013C0001498A8812868000608D42868000605D467
:1013D0002868000602D428680006F3D54E20A881AC
:1013E0002868000608D42868000605D42868000686
:1013F00002D428680006F3D54120A8812868000699
:1014000008D42868000605D42868000602D4286895
:101410000006F3D51098A8812868000608D428682B
:10142000000605D42868000602D428680006F3D513
:101430004B20A8812868000608D42868000605D437
:101440002868000602D428680006F3D54620A88143
:101450002868000608D42868000605D42868000615
:1014600002D428680006F3D51498A88128680006DD
:1014700008D42868000605D42868000602D4286825
:101480000006F3D5AE812868000608D42868000657
:1014900005D42868000602D428680006F3D51298FF
:1014A000A8812868000608D42868000605D42868A2
:1014B000000602D428680006F3D51498A88128688D
:1014C000000608D42868000605D42868000602D45F
:1014D00028680006F3D55420A8812868000608D49F
:1014E0002868000605D42868000602D4286800068B
:1014F000F3D55820A8812868000608D4286800067B
:1015000005D42868000602D428680006F3D50D9893
:10151000A8812868000608D42868000605D4286831
:10152000000602D428680006F3D50C98A881286824
:10153000000608D42868000605D42868000602D4EE
:1015400028680006F3D51398A8812868000600D5FE
:101550008AE62868000600D586E62868000600D5D9
:1015600082E628680006F0D57EE63868C00603D417
:101570003868800700D5D4E02868000608D42868B9
:10158000000605D42868000602D428680006F3D5B2
:101590004E20A8812868000608D42868000605D4D3
:1015A0002868000602D428680006F3D54120A881E7
:1015B00007AFC2CF2868000608D42868000605D403
:1015C0002868000602D428680006F3D51098A88180
:1015D0002868000608D42868000605D42868000694
:1015E00002D428680006F3D54B20A881286800069D
:1015F00008D42868000605D42868000602D42868A4
:101600000006F3D51498A8812868000608D4286835
:10161000000605D42868000602D428680006F3D521
:101620005220A8812868000608D42868000605D43E
:101630002868000602D428680006F3D5A981286826
:10164000000608D42868000605D42868000602D4DD
:1016500028680006F3D56320A8812868000608D40E
:101660002868000605D42868000602D42868000609
:10167000F3D5A9812868000608D42868000605D497
:101680002868000602D428680006F3D5AA812868D5
:10169000000608D42868000605D42868000602D48D
:1016A00028680006F3D57620A8812868000608D4AB
:1016B0002868000605D42868000602D428680006B9
:1016C000F3D5A9812868000608D42868000605D447
:1016D0002868000602D428680006F3D50698A88179
:1016E0002868000608D42868000605D42868000683
:1016F00002D428680006F3D51398A881286800064C
:1017000008D42868000605D42868000602D4286892
:101710000006F3D5AB81012080033860304615B058
:10172000F0BD0598386100E0AB813868400600D50F
:10173000D5E028680006FCD55720A8812868000657
:1017400008D42868000605D42868000602D4286852
:101750000006F3D51198A8812868000608D42868E7
:10176000000605D42868000602D428680006F3D5D0
:10177000AA812868000608D42868000605D42868CD
:10178000000602D428680006F3D5A981286800065F
:1017900008D42868000605D42868000602D4286802
:1017A0000006F3D5AA812868000608D42868000638
:1017B00005D42868000602D428680006F3D50F98DF
:1017C000A8812868000608D42868000605D428687F
:1017D000000602D428680006F3D50E98A881286870
:1017E000000608D42868000605D42868000602D43C
:1017F00028680006F3D51498A8812868000608D444
:101800002868000605D42868000602D42868000667
:10181000F3D56620A8812868000608D42868000649
:1018200005D42868000602D428680006F3D56F2086
:10183000A8812868000608D42868000605D428680E
:10184000000602D428680006F3D51298A8812868FB
:10185000000608D42868000605D42868000602D4CB
:1018600028680006F3D51498A8812868000608D4D3
:101870002868000605D42868000602D428680006F7
:10188000F3D55420A8812868000608D428680006EB
:1018900005D42868000602D428680006F3D51098FD
:1018A000A8812868000608D42868000605D428689E
:1018B000000602D428680006F3D51398A88128688A
:1018C000000600D530E72868000600D52CE7286818
:1018D000000600D528E728680006F0D524E7386818
:1018E0000026400601D4099F15E7089606920C9140
:1018F0000B9A100403994018049989024018099919
:101900000860002A61D00020E94E044603E0E0B2FE
:101910000B99884259D00E90396802E0AB81074696
:101920000168C90648D43968490745D43968490669
:1019300042D438461F465722002104E0AA81891C60
:10194000725C26291CD02B681B0608D42B681B064A
:1019500005D42B681B0602D42B681B06F3D5AA817D
:1019600001220A43B25C2B681B06E7D42B681B06D6
:10197000E4D42B681B06E1D42B681B06F3D5DDE706
:101980002968090608D42968090605D429680906C2
:1019900002D429680906F3D51399A9813B46296821
:1019A0000906BBD429680906B8D429680906B5D444
:1019B00029680906F3D5B1E739684907A7D5F96859
:1019C0000A9A0E981154641CA1E738684006099FD2
:1019D000089E00D49FE62868000608D42868000600
:1019E00005D42868000602D428680006F3D51E46F0
:1019F0000D98A8810C9A2868000608D4286800066B
:101A000005D42868000602D428680006F3D500989B
:101A1000A881069B2868000608D42868000605D41B
:101A20002868000602D428680006F3D51098A8811B
:101A30002868000608D42868000605D4286800062F
:101A400002D428680006F3D51498A88128680006F7
:101A500008D42868000605D42868000602D428683F
:101A60000006F3D5AA812868000608D42868000675
:101A700005D42868000602D428680006F3D5129819
:101A8000A8812868000608D42868000605D42868BC
:101A9000000602D428680006F3D51198A8812868AA
:101AA000000608D42868000605D42868000602D479
:101AB00028680006F3D50F98A8812868000608D486
:101AC0002868000605D42868000602D428680006A5
:101AD000F3D57320A8812868000608D4286800067A
:101AE00005D42868000602D428680006F3D51198AA
:101AF000A8812868000608D42868000605D428684C
:101B0000000602D428680006F3D56320A88129685E
:101B1000090608D42968090605D42968090602D4EB
:101B200029680906F3D5AA812968090608D4296815
:101B3000090605D42968090602D429680906F3D5DF
:101B4000AB812968090608D42968090605D42968E3
:101B5000090602D429680906F3D56F24AC813346FF
:101B60002968090608D42968090605D429680906E0
:101B700002D429680906F3D50F99A98129680906B5
:101B800008D42968090605D42968090602D42968F9
:101B90000906F3D51499A9812968090608D429688A
:101BA000090605D42968090602D429680906F3D56F
:101BB000A8812868000608D42868000605D428688B
:101BC000000602D428680006F3D5AC81079928687E
:101BD000000608D42868000605D42868000602D448
:101BE00028680006F3D50298A8812868000608D462
:101BF0002868000605D42868000602D42868000674
:101C0000F3D57020A8812868000608D4286800064B
:101C100005D42868000602D428680006F3D5019888
:101C2000A8812868000608D42868000605D428681A
:101C3000000602D428680006F3D5A98128680006AA
:101C400008D42868000605D42868000602D428684D
:101C50000006F3D5AA812868000608D42868000683
:101C600005D42868000602D428680006F3D5A981A7
:101C70002868000608D42868000605D428680006ED
:101C800002D428680006F3D51398A8812868012695
:101C9000000600D53EE52868000600D53AE528682C
:101CA000000600D536E528680006EFD532E5C046C7
:101CB000F63F0008F0B591B0019203910990014CF4
:101CC00002E0C0461C3801402068000608D42068A5
:101CD000000605D42068000602D420680006F3D56B
:101CE00053200A90A0812068000608D420680006CE
:101CF00005D42068000602D420680006F3D57420BD
:101D00000F90A0812068000608D42068000605D442
:101D10002068000602D420680006F3D561200E90EA
:101D2000A0812068000608D42068000605D4206839
:101D3000000602D420680006F3D57221A181206834
:101D4000000608D42068000605D42068000602D4E6
:101D500020680006F3D50F98A0812068000608D4FB
:101D60002068000605D42068000602D4206800061A
:101D7000F3D56925A5812068000608D420680006EF
:101D800005D42068000602D420680006F3D56E2032
:101D90000D90A0812068000608D42068000605D4B4
:101DA0002068000602D420680006F3D567200C9056
:101DB000A0812068000608D42068000605D42068A9
:101DC000000602D420680006F3D52026A6812268EA
:101DD000120608D42268120605D42268120602D41C
:101DE00022681206F3D549200B90A08122681206C2
:101DF00008D42268120605D42268120602D422688A
:101E00001206F3D532200090A0812268120608D471
:101E10002268120605D42268120602D4226812062D
:101E2000F3D54320A08123681B0608D423681B0632
:101E300005D423681B0602D423681B06F3D5A681AC
:101E400023681B0608D423681B0605D423681B06D9
:101E500002D423681B06F3D5A18123681B0608D48E
:101E600023681B0605D423681B0602D423681B06BF
:101E7000F3D565220592A28123681B0608D4236846
:101E80001B0605D423681B0602D423681B06F3D562
:101E90000E9AA28123681B0608D423681B0605D46A
:101EA00023681B0602D423681B06F3D56422049220
:101EB000A28123681B0608D423681B0605D4236867
:101EC0001B0602D423681B06F3D5079008950D2244
:101ED0001092A28123681B0608D423681B0605D430
:101EE00023681B0602D423681B06F3D50A27A781A3
:101EF000784D2A46143A00200690106009235B03AF
:101F0000099840000290C318099213603A462F4680
:101F10002B68DB06089D079800D4E2E00A923B6834
:101F2000DB0603D43B689B0700D551E2226812060A
:101F300008D42268120605D42268120602D4226848
:101F40001206F3D54E22A2812268120608D4226816
:101F5000120605D42268120602D422681206F3D5AE
:101F60004122A281059B2268120608D4226812062B
:101F700005D42268120602D422681206F3D5A08185
:101F80002268120608D42268120605D422681206B6
:101F900002D422681206F3D54B22A28122681206CF
:101FA00008D42268120605D42268120602D42268D8
:101FB0001206F3D5A6812068000608D42068000622
:101FC00005D42068000602D420680006F3D552200C
:101FD000A0810A9A2068000608D42068000605D46B
:101FE0002068000602D420680006F3D5A38120688B
:101FF000000608D42068000605D42068000602D434
:1020000020680006F3D56320A0812068000608D46C
:102010002068000605D42068000602D42068000667
:10202000F3D5A3812068000608D42068000605D4F3
:102030002068000602D420680006F3D5A581206838
:10204000000608D42068000605D42068000602D4E3
:1020500020680006F3D57620A0812068000608D409
:102060002068000605D42068000602D42068000617
:10207000F3D5A3812068000608D42068000605D4A3
:102080002068000602D420680006F3D50498A081D9
:102090002068000608D42068000605D420680006E1
:1020A00002D420680006F3D51098A08120680006AD
:1020B00008D42068000605D42068000602D42068F1
:1020C0000006F3D5A281069801218A0309990A60C6
:1020D00011B0F0BD18580040A2813B68DB0600D566
:1020E0001CE73B689B0700D518E723681B0608D44C
:1020F00023681B0605D423681B0602D423681B062D
:10210000F3D55723A38123681B0608D423681B0635
:1021100005D423681B0602D423681B06F3D50E9B47
:10212000A38123681B0608D423681B0605D42368F3
:102130001B0602D423681B06F3D5A58123681B0662
:1021400008D423681B0605D423681B0602D4236821
:102150001B06F3D50F9BA38123681B0608D42368B5
:102160001B0605D423681B0602D423681B06F3D57F
:10217000A58123681B0608D423681B0605D42368A1
:102180001B0602D423681B06F3D50D9BA38123688D
:102190001B0608D423681B0605D423681B0602D43B
:1021A00023681B06F3D50C9BA38123681B0608D468
:1021B00023681B0605D423681B0602D423681B066C
:1021C000F3D5A68123681B0608D423681B0605D413
:1021D00023681B0602D423681B06F3D56623A3815C
:1021E00023681B0608D423681B0605D423681B0636
:1021F00002D423681B06F3D56F23A38127683F060B
:1022000008D427683F0605D427683F0602D427680C
:102210003F06F3D5A18127683F0608D427683F060B
:1022200005D427683F0602D427683F06F3D5A68168
:1022300027683F0608D427683F0605D427683F066D
:1022400002D427683F06F3D54E27A78127683F06AB
:1022500008D427683F0605D427683F0602D42768BC
:102260003F06F3D54127A78127683F0608D4276892
:102270003F0605D427683F0602D427683F06F3D5FA
:10228000A08127683F0608D427683F0605D4276841
:102290003F0602D427683F06F3D54B27A78127685E
:1022A0003F0608D427683F0605D427683F0602D4B6
:1022B00027683F06F3D54627A78127683F0608D43D
:1022C00027683F0605D427683F0602D427683F06E3
:1022D000F3D5A68127683F0608D427683F0605D4B2
:1022E00027683F0602D427683F06F3D5A3812368F9
:1022F0001B0608D423681B0605D423681B0602D4DA
:1023000023681B06F3D5A181CE4F23681B0608D492
:1023100023681B0605D423681B0602D423681B060A
:10232000F3D5A68123681B0608D423681B0605D4B1
:1023300023681B0602D423681B06F3D55423A3810C
:1023400023681B0608D423681B0605D423681B06D4
:1023500002D423681B06F3D55823A38123681B06E8
:1023600008D423681B0605D423681B0602D42368FF
:102370001B06F3D50B9BA38123681B0608D4236897
:102380001B0605D423681B0602D423681B06F3D55D
:102390000A9BA38123681B0608D423681B0605D467
:1023A00023681B0602D423681B06F3D5109BA38168
:1023B00023681B0600D58FE623681B0600D58BE635
:1023C00023681B0600D587E623681B06F0D583E645
:1023D000039A3A613B685B060A9A13D53B685B0631
:1023E00000D470E60B9883020298C318099A136010
:1023F0003B68DB0600D529E1934BDBE0A2813B681B
:102400005B06EBD423681B06FCD55723A381236806
:102410001B0608D423681B0605D423681B0602D4B8
:1024200023681B06F3D50E9BA38123681B0608D4E3
:1024300023681B0605D423681B0602D423681B06E9
:10244000F3D5A58123681B0608D423681B0605D491
:1024500023681B0602D423681B06F3D50F9BA381B8
:1024600023681B0608D423681B0605D423681B06B3
:1024700002D423681B06F3D5A58123681B0608D464
:1024800023681B0605D423681B0602D423681B0699
:10249000F3D50D9BA38123681B0608D423681B0674
:1024A00005D423681B0602D423681B06F3D50C9BB6
:1024B000A38123681B0608D423681B0605D4236860
:1024C0001B0602D423681B06F3D5A68123681B06CE
:1024D00008D423681B0605D423681B0602D423688E
:1024E0001B06F3D56623A38123681B0608D4236843
:1024F0001B0605D423681B0602D423681B06F3D5EC
:102500006F23A38123681B0608D423681B0605D408
:1025100023681B0602D423681B06F3D5A181236818
:102520001B0608D423681B0605D423681B0602D4A7
:1025300023681B06F3D5A68123681B0608D42368ED
:102540001B0605D423681B0602D423681B06F3D59B
:102550005423A38123681B0608D423681B0605D4D3
:1025600023681B0602D423681B06F3D5A0812368C9
:102570001B0608D423681B0605D423681B0602D457
:1025800023681B06F3D5109BA38123681B0600D587
:1025900034E723681B0600D530E723681B0600D507
:1025A0002CE723681B06F0D528E70A9AA2813A682F
:1025B000D2064BD43D686D0748D43D686D0645D4BE
:1025C0005727002504E0A781AD1C5F5D262D1CD098
:1025D0002268120608D42268120605D42268120660
:1025E00002D422681206F3D5A78101222A439F5CF8
:1025F00022681206E7D422681206E4D42268120682
:10260000E1D422681206F3D5DDE72268120608D469
:102610002268120605D42268120602D42268120625
:10262000F3D5109AA281C24F22681206BDD4226847
:102630001206BAD422681206B7D422681206F3D55D
:10264000B3E7C04618580040F63F00083A68520603
:10265000069800D438E52268120608D422681206CB
:1026600005D42268120602D422681206F3D50B980C
:10267000A0812268120608D42268120605D42268B6
:10268000120602D422681206F3D50098A081089899
:102690002268120608D42268120605D4226812069F
:1026A00002D422681206F3D5079AA2812268120684
:1026B00008D42268120605D42268120602D42268C1
:1026C0001206F3D5A6812268120608D422681206E3
:1026D00005D42268120602D422681206F3D50F9A96
:1026E000A2812268120608D42268120605D4226844
:1026F000120602D422681206F3D5A18122681206BE
:1027000008D42268120605D42268120602D4226870
:102710001206F3D50E9AA2812268120608D4226806
:10272000120605D42268120602D422681206F3D5D6
:102730000D9AA2812268120608D42268120605D4D6
:102740002268120602D422681206F3D57322A281EF
:102750002268120608D42268120605D422681206DE
:1027600002D422681206F3D50E9AA28122681206BC
:1027700008D42268120605D42268120602D4226800
:102780001206F3D56322A28123681B0608D42368AE
:102790001B0605D423681B0602D423681B06F3D549
:1027A0000F9BA38123681B0608D423681B0605D44E
:1027B00023681B0602D423681B06F3D5A081216879
:1027C000090608D42168090605D42168090602D43F
:1027D00021680906F3D56F21A18123681B0608D45F
:1027E00023681B0605D423681B0602D423681B0636
:1027F000F3D50D9BA38123681B0608D423681B0611
:1028000005D423681B0602D423681B06F3D5A681D2
:102810002068000608D42068000605D42068000659
:1028200002D420680006F3D5A281059A206800062C
:1028300008D42068000605D42068000602D4206869
:102840000006F3D5A1810A992068000608D4206803
:10285000000605D42068000602D420680006F3D5DF
:102860006D20A0812068000608D42068000605D4E9
:102870002068000602D420680006F3D57020A081ED
:102880002068000608D42068000605D420680006E9
:1028900002D420680006F3D56C20A08120680006D1
:1028A00008D42068000605D42068000602D42068F9
:1028B0000006F3D5A2812068000608D4206800062F
:1028C00005D42068000602D420680006F3D50F98CE
:1028D000A0812068000608D42068000605D420687E
:1028E000000602D420680006F3D5A2812068000605
:1028F00008D42068000605D42068000602D42068A9
:102900000006F3D51098A0812068000608D420683E
:10291000000605D42068000602D420680006F3D51E
:10292000A181F868019908700120FFF7CDFBC0462E
:1029300018580040F0B585B000920191034653222B
:102940000020014C014908E01C3801401D400008EE
:10295000A281801D0A5C1E285FD025682D0608D440
:1029600025682D0605D425682D0602D425682D0678
:10297000F3D5A281012502462A438A5C26683606E1
:1029800008D42668360605D42668360602D426689A
:102990003606F3D5A2814218967827683F0608D4F8
:1029A00027683F0605D427683F0602D427683F06FC
:1029B000F3D5A681D67827683F0608D427683F0656
:1029C00005D427683F0602D427683F06F3D5A681C1
:1029D000167927683F0608D427683F0605D427687C
:1029E0003F0602D427683F06F3D5A68152792668B0
:1029F0003606ADD426683606AAD426683606A7D48D
:102A000026683606F3D5A3E72068000608D42068B8
:102A1000000605D42068000602D420680006F3D51D
:102A20000D200390A0812068000608D420680006CD
:102A300005D42068000602D420680006F3D50A20D9
:102A40000490A081C54A1646143E00203060112132
:102A500049035B0059180296316001E00499A18195
:102A60001168C90600D57BE11168890700D577E1B7
:102A70002168090608D42168090605D421680906D9
:102A800002D421680906F3D55721A18121680906DE
:102A900008D42168090605D42168090602D42168F2
:102AA0000906F3D56121A1812168090608D42168AE
:102AB000090605D42168090602D421680906F3D560
:102AC0006921A18123681B0608D423681B0605D44D
:102AD00023681B0602D423681B06F3D57423A38145
:102AE00023681B0608D423681B0605D423681B062D
:102AF00002D423681B06F3D5A1812168090608D4F6
:102B00002168090605D42168090602D4216809064E
:102B1000F3D56E21A1812168090608D42168090630
:102B200005D42168090602D421680906F3D5672176
:102B3000A1812168090608D42168090605D4216805
:102B4000090602D421680906F3D52023A381216850
:102B5000090608D42168090605D42168090602D4AB
:102B600021680906F3D56621A1812168090608D4E8
:102B70002168090605D42168090602D421680906DE
:102B8000F3D56F21A18127683F0608D427683F0647
:102B900005D427683F0602D427683F06F3D572277D
:102BA000A7812668360608D42668360605D4266826
:102BB000360602D426683606F3D5A3812668360683
:102BC00008D42668360605D42668360602D4266858
:102BD0003606F3D54E26A6812668360608D4266822
:102BE000360605D42668360602D426683606F3D59E
:102BF0004126A6812668360608D42668360605D4FE
:102C00002668360602D426683606F3D54326A68102
:102C10002668360608D42668360605D426683606A1
:102C200002D426683606F3D54B26A68126683606DA
:102C300008D42668360605D42668360602D42668E7
:102C40003606F3D54626A6812668360608D42668B9
:102C5000360605D42668360602D426683606F3D52D
:102C6000A3812668360608D42668360605D4266869
:102C7000360602D426683606F3D5A18121680906F6
:102C800008D42168090605D42168090602D4216800
:102C90000906F3D5A7812168090608D42168090629
:102CA00005D42168090602D421680906F3D5A38159
:102CB0002168090608D42168090605D42168090697
:102CC00002D421680906F3D55421A181216809069F
:102CD00008D42168090605D42168090602D42168B0
:102CE0000906F3D55821A1812168090608D4216875
:102CF000090605D42168090602D421680906F3D51E
:102D00004921A1812168090608D42168090605D452
:102D10002168090602D421680906F3D55321A1814F
:102D20002168090608D42168090605D42168090626
:102D300002D421680906F3D50399A1812168090607
:102D400000D58BE62168090600D587E621680906CB
:102D500000D583E621680906F0D57FE618580040C3
:102D60001168C90603D41168890700D5D4E0216829
:102D7000090608D42168090605D42168090602D489
:102D800021680906F3D54E21A1812168090608D4DE
:102D90002168090605D42168090602D421680906BC
:102DA000F3D54121A1812168090608D421680906CB
:102DB00005D42168090602D421680906F3D5432108
:102DC000A1812168090608D42168090605D4216873
:102DD000090602D421680906F3D54B21A181216897
:102DE000090608D42168090605D42168090602D419
:102DF00021680906F3D52021A1812168090608D49C
:102E00002168090605D42168090602D4216809064B
:102E1000F3D55221A1812168090608D42168090649
:102E200005D42168090602D421680906F3D5652175
:102E3000A1812268120608D42268120605D42268ED
:102E4000120602D422681206F3D56322A2812268F8
:102E5000120608D42268120605D42268120602D48B
:102E600022681206F3D5A1812268120608D42268CE
:102E7000120605D42268120602D422681206F3D57F
:102E80006922A2812268120608D42268120605D49B
:102E90002268120602D422681206F3D57622A28195
:102EA0002268120608D42268120605D42268120687
:102EB00002D422681206F3D5A1812168090608D43C
:102EC0002168090605D42168090602D4216809068B
:102ED000F3D56421A1812168090608D42168090677
:102EE00005D42168090602D421680906F3D503999F
:102EF000A1812168090608D42168090605D4216842
:102F0000090602D421680906F3D50499A181A90311
:102F1000029A116005B0F0BD0198106101E00498BB
:102F2000A0811068C00600D579E11068800700D53F
:102F300075E12068000608D42068000605D42068E2
:102F4000000602D420680006F3D55720A08120682F
:102F5000000608D42068000605D42068000602D4C4
:102F600020680006F3D56120A0812068000608D4FF
:102F70002068000605D42068000602D420680006F8
:102F8000F3D56920A0812168090608D421680906C3
:102F900005D42168090602D421680906F3D57421F5
:102FA000A1812168090608D42168090605D4216891
:102FB000090602D421680906F3D5A081206800061D
:102FC00008D42068000605D42068000602D42068D2
:102FD0000006F3D56E20A0812068000608D4206882
:102FE000000605D42068000602D420680006F3D548
:102FF0006720A0812068000608D42068000605D458
:103000002068000602D420680006F3D52020A081A5
:103010002168090608D42168090605D42168090633
:1030200002D421680906F3D56621A1812168090629
:1030300008D42168090605D42168090602D421684C
:103040000906F3D56F21A18123681B0608D42368E4
:103050001B0605D423681B0602D423681B06F3D580
:103060007223A3812668360608D42668360605D45E
:103070002668360602D426683606F3D5A08126686F
:10308000360608D42668360605D42668360602D4E5
:1030900026683606F3D54E26A6812668360608D45D
:1030A0002668360605D42668360602D42668360613
:1030B000F3D54126A6812668360608D4266836064A
:1030C00005D42668360602D426683606F3D543268C
:1030D000A6812668360608D42668360605D42668F2
:1030E000360602D426683606F3D54B26A681266816
:1030F000360608D42668360605D42668360602D475
:1031000026683606F3D54626A6812668360608D4F4
:103110002668360605D42668360602D426683606A2
:10312000F3D5A0812668360608D42668360605D46D
:103130002668360602D426683606F3D5A1812168B2
:10314000090608D42168090605D42168090602D4B5
:1031500021680906F3D5A3812168090608D42168EE
:10316000090605D42168090602D421680906F3D5A9
:10317000A0812068000608D42068000605D42068D5
:10318000000602D420680006F3D55420A0812068F0
:10319000000608D42068000605D42068000602D482
:1031A00020680006F3D55820A0812068000608D4C6
:1031B0002068000605D42068000602D420680006B6
:1031C000F3D54920A0812068000608D420680006B5
:1031D00005D42068000602D420680006F3D55320E9
:1031E000A0812068000608D42068000605D4206865
:1031F000000602D420680006F3D50398A081206859
:10320000000600D58BE62068000600D587E620681A
:10321000000600D583E620680006F0D57FE6116839
:103220000020C90600D572E61168890700D46EE651
:103230000099116101E00499A1811168490600D546
:10324000D6E021680906FCD55721A181216809062D
:1032500008D42168090605D42168090602D421682A
:103260000906F3D56121A1812168090608D42168E6
:10327000090605D42168090602D421680906F3D598
:103280006921A18123681B0608D423681B0605D485
:1032900023681B0602D423681B06F3D57423A3817D
:1032A00023681B0608D423681B0605D423681B0665
:1032B00002D423681B06F3D5A1812168090608D42E
:1032C0002168090605D42168090602D42168090687
:1032D000F3D56E21A1812168090608D42168090669
:1032E00005D42168090602D421680906F3D56721AF
:1032F000A1812168090608D42168090605D421683E
:10330000090602D421680906F3D52021A18123688A
:103310001B0608D423681B0605D423681B0602D4A9
:1033200023681B06F3D56623A38123681B0608D4F4
:1033300023681B0605D423681B0602D423681B06DA
:10334000F3D56F23A38123681B0608D423681B06CB
:1033500005D423681B0602D423681B06F3D5722309
:10336000A38123681B0608D423681B0605D42368A1
:103370001B0602D423681B06F3D5A1812168090628
:1033800008D42168090605D42168090602D42168F9
:103390000906F3D55421A1812168090608D42168C2
:1033A000090605D42168090602D421680906F3D567
:1033B0004321A1812168090608D42168090605D4A2
:1033C0002168090602D421680906F3D50399A18171
:1033D0002168090600D52EE72168090600D52AE7ED
:1033E0002168090600D526E721680906F0D522E7FD
:1033F0001168490600D48AE52068000608D42068D0
:10340000000605D42068000602D420680006F3D523
:103410004920A0812068000608D42068000605D451
:103420002068000602D420680006F3D53220A0816F
:103430002068000608D42068000605D4206800062D
:1034400002D420680006F3D54320A081206800063E
:1034500008D42068000605D42068000602D420683D
:103460000006F3D52022A2812068000608D4206837
:10347000000605D42068000602D420680006F3D5B3
:103480007420A0812168090608D42168090605D4A2
:103490002168090602D421680906F3D57221A181A9
:1034A0002168090608D42168090605D4216809069F
:1034B00002D421680906F3D56123A3812168090696
:1034C00008D42168090605D42168090602D42168B8
:1034D0000906F3D56E21A1812668360608D4266830
:1034E000360605D42668360602D426683606F3D595
:1034F0007326A6812668360608D42668360605D4C3
:103500002668360602D426683606F3D5A3812368DA
:103510001B0608D423681B0605D423681B0602D4A7
:1035200023681B06F3D56323A3812668360608D4D7
:103530002668360605D42668360602D4266836067E
:10354000F3D5A0812668360608D42668360605D449
:103550002668360602D426683606F3D56926A68183
:103560002668360608D42668360605D42668360648
:1035700002D426683606F3D56F27A781266836065B
:1035800008D42668360605D42668360602D426688E
:103590003606F3D5A1812168090608D421680906F9
:1035A00005D42168090602D421680906F3D5A28151
:1035B0002168090608D42168090605D4216809068E
:1035C00002D421680906F3D5A3812168090608D42D
:1035D0002168090605D42168090602D42168090674
:1035E000F3D5A7812168090608D42168090605D406
:1035F0002168090602D421680906F3D56D21A1814D
:103600002168090608D42168090605D4216809063D
:1036100002D421680906F3D57021A1812168090629
:1036200008D42168090605D42168090602D4216856
:103630000906F3D56C21A1812168090608D4216807
:10364000090605D42168090602D421680906F3D5C4
:103650006521A1812268120608D42268120605D4C9
:103660002268120602D422681206F3D5A0812068CF
:10367000000608D42068000605D42068000602D49D
:1036800020680006F3D5A1812068000608D42068D0
:10369000000605D42068000602D420680006F3D591
:1036A0000398A0812068000608D42068000605D48D
:1036B0002068000602D420680006F3D5284624E4DA
:1036C000D0B502AF9AB06E46F41D1D34FCF7E8FD8C
:1036D000F51D2D35281D3021FCF78CFD0020B06133
:1036E0006063102001217161E1612062022020618C
:1036F0002846FCF7F7FE002803D0EFF3108072B6DF
:10370000FEE77569B1693163F162B162072020603B
:10371000F01D1D30FCF724FE002803D0EFF31080CD
:1037200072B6FEE7A903B1613B4A50680843506096
:103730006804116801431160FCF7CEFEE1214902E3
:1037400000F046FB354C2146103908600920C106BF
:103750000520C2040A602A02726010324A622146C1
:103760001C390A680D23F3601A430A600321890497
:10377000294B1A680A431A60A9059A680A439A6095
:103780003121CA0526490B6813430B604A6A254B51
:1037900013434B62C0024A6802434A60B069486101
:1037A000214A1046143801682943016011682943F1
:1037B00011601E490A691E4B13430B610A682A43B4
:1037C0000A60E904144B1A680A431A605521090378
:1037D00002680A4302606902134A106831600843B4
:1037E00010606920B0610F213161F21D19327261E0
:1037F000FEF760FA2025B06929463269FFF79AF88A
:10380000B069B56029467269FEF754FA684608380F
:10381000B06185461EE0C046141002401C380140CD
:1038200000040048001050001408004800580040F0
:10383000130F42100148C030802101E0FFFE00005C
:10384000034B1A680A431A6019680140196001E0C5
:103850001408004864207061FCF704FD6925A82164
:1038600002232846B269FDF779FB002800D02AE13F
:103870002068000608D42068000605D420680006E9
:1038800002D420680006F3D54520A081B268736990
:103890002068000608D42068000605D420680006C9
:1038A00002D420680006F3D57220A08121680906A1
:1038B00008D42168090605D42168090602D42168C4
:1038C0000906F3D5A0812168090608D421680906F4
:1038D00005D42168090602D421680906F3D56F21B1
:1038E000A1812168090608D42168090605D4216848
:1038F000090602D421680906F3D5A08121680906CA
:1039000008D42168090605D42168090602D4216873
:103910000906F3D5A2812168090608D421680906A1
:1039200005D42168090602D421680906F3D5A081CF
:103930002068000608D42068000605D42068000628
:1039400002D420680006F3D56520A0812068000617
:1039500008D42068000605D42068000602D4206838
:103960000006F3D56120A0812168090608D42168EA
:10397000090605D42168090602D421680906F3D591
:10398000A3812168090608D42168090605D42168A5
:10399000090602D421680906F3D5A5812168090624
:1039A00008D42168090605D42168090602D42168D3
:1039B0000906F3D56E21A1812168090608D4216882
:1039C000090605D42168090602D421680906F3D541
:1039D0006721A1812168090608D42168090605D458
:1039E0002168090602D421680906F3D5A28121685D
:1039F000090608D42168090605D42168090602D4FD
:103A000021680906F3D55821A1812168090608D447
:103A10002168090605D42168090602D4216809062F
:103A2000F3D5A2812168090608D42168090605D4C6
:103A30002168090602D421680906F3D5A38121680B
:103A4000090608D42168090605D42168090602D4AC
:103A500021680906F3D5A0812168090608D42168E8
:103A6000090605D42168090602D421680906F3D5A0
:103A70007421A1812168090608D42168090605D4AA
:103A80002168090602D421680906F3D5A0812068BF
:103A9000000608D42068000605D42068000602D479
:103AA00020680006F3D5F068A0812068000608D4DD
:103AB0002068000605D42068000602D420680006AD
:103AC000F3D50A20A081B16908784978090208185D
:103AD00080B2F11D2D313161F51D15352A46FCF7F7
:103AE00079FF306900882B78002B04D0B5498842D3
:103AF0007268B64906D8002B0BD1B24988423268A9
:103B0000B14906D9AE4B18681043186018680840D0
:103B100018606925AA2102232846B269FDF71EFA1A
:103B2000002800D02AE12068000608D4206800069A
:103B300005D42068000602D420680006F3D545208D
:103B4000A081B26873692068000608D42068000666
:103B500005D42068000602D420680006F3D5722040
:103B6000A0812168090608D42168090605D42168C6
:103B7000090602D421680906F3D5A0812168090647
:103B800008D42168090605D42168090602D42168F1
:103B90000906F3D56F21A1812168090608D421689F
:103BA000090605D42168090602D421680906F3D55F
:103BB000A0812168090608D42168090605D4216876
:103BC000090602D421680906F3D5A28121680906F5
:103BD00008D42168090605D42168090602D42168A1
:103BE0000906F3D5A0812068000608D420680006E5
:103BF00005D42068000602D420680006F3D56520AD
:103C0000A0812068000608D42068000605D420683A
:103C1000000602D420680006F3D56120A081216847
:103C2000090608D42168090605D42168090602D4CA
:103C300021680906F3D5A3812168090608D4216803
:103C4000090605D42168090602D421680906F3D5BE
:103C5000A5812168090608D42168090605D42168D0
:103C6000090602D421680906F3D56E21A1812168D5
:103C7000090608D42168090605D42168090602D47A
:103C800021680906F3D56721A1812168090608D4B6
:103C90002168090605D42168090602D421680906AD
:103CA000F3D5A2812168090608D42168090605D444
:103CB0002168090602D421680906F3D55821A1819B
:103CC0002168090608D42168090605D42168090677
:103CD00002D421680906F3D5A2812168090608D417
:103CE0002168090605D42168090602D4216809065D
:103CF000F3D5A3812168090608D42168090605D4F3
:103D00002168090602D421680906F3D5A08121683B
:103D1000090608D42168090605D42168090602D4D9
:103D200021680906F3D57421A1812168090608D408
:103D30002168090605D42168090602D4216809060C
:103D4000F3D5A0812068000608D42068000605D4B9
:103D50002068000602D420680006F3D5F068A08130
:103D60002068000608D42068000605D420680006F4
:103D700002D420680006F3D50A20A081B169087832
:103D800049780902081880B2F11D1D317161F51DD5
:103D900015352A46FCF71EFE70690088297800292F
:103DA00003D0084A904200D944E5002900D051E5EB
:103DB0000449884200D84DE50348803040213FE562
:103DC000140800489F0F0000FFFE0000FFFD0000E8
:103DD00043088B421AD3002203098B4279D3030A8A
:103DE0008B425ED3030B8B4242D3030C8B4227D30F
:103DF0000902FF2212BA030C8B4202D312120902EB
:103E000003D0030B8B4233D31AE0D3E0411A804135
:103E1000401C704703460B4371D443088B42F5D3D3
:103E2000002203098B4254D3030A8B4239D3030B7C
:103E30008B421DD3030C8B4202D394466EE0090AD9
:103E4000C30B8B4201D3CB03C01A5241830B8B426D
:103E500001D38B03C01A5241430B8B4201D34B0356
:103E6000C01A5241030B8B4201D30B03C01A5241BB
:103E7000C30A8B4201D3CB02C01A5241830A8B4240
:103E800001D38B02C01A5241430A8B4201D34B0229
:103E9000C01A5241030A8B4201D30B02C01A52418D
:103EA000CDD2C3098B4201D3CB01C01A5241830941
:103EB0008B4201D38B01C01A524143098B4201D37B
:103EC0004B01C01A524103098B4201D30B01C01AA6
:103ED0005241C3088B4201D3CB00C01A5241830820
:103EE0008B4201D38B00C01A524143088B4201D34D
:103EF0004B00C01A5241411A524110007047CA0F7C
:103F000000D04942031000D34042534000229C4657
:103F100003098B422DD3030A8B4212D38901FC2261
:103F200012BA030A8B420CD3890192118B4208D337
:103F3000890192118B4204D3890137D0921100E09C
:103F40008909C3098B4201D3CB01C01A52418309AD
:103F50008B4201D38B01C01A524143098B4201D3DA
:103F60004B01C01A524103098B4201D30B01C01A05
:103F70005241C3088B4201D3CB00C01A524183087F
:103F80008B4201D38B00C01A5241D9D243088B42D5
:103F900001D34B00C01A5241411A00D2014652418E
:103FA000104663465B1000D34042704763465B1087
:103FB00000D3404201B50021004201D0C943084668
:103FC000C046C04602BD0000000000000000010223
:103FD00003040607080902030405060708090A0B7B
:103FE0000C0D0E0F10100102030405060708090A44
:103FF0000B0C0D0E0F1057616974696E6720666FA8
:1040000072204E41434B2C2052584E45206F722057
:10401000544320746F206368616E67650053746158
:104020007274696E67204932432073696E676C65EC
:1040300020627974652077726974650060400008B9
:1040400000000020100000001C0100087040000863
:1040500010000020680600003C010008000000007D
:10406000010000000400000000127A0000000000BF
:04000005080000C12E
:00000001FF
